:020000040000FA
:0600000002011D021D3289
:03002B000221CAE5
:03005300021DA8E3
:03006B00022198D7
:10008300021C23E5C754F84401F5C7790122000097
:100093000080FB120086B90003020107E4791B7894
:1000A30002B800028004F709D8FCE4791D7802B88D
:1000B30000028004F709D8FCE490028178FF790DEF
:1000C3008002F0A3D8FCD9FA781A90014D7A01BACC
:1000D30000028007E493A3F608DAF9900F7FAA825F
:1000E300AB8390014E78D079018015E493A3AC8261
:1000F300AD838A828B83F0A3AA82AB838C828D83A8
:10010300D8E9D9E77582A87583BA740312012F75EC
:100113008291758300740012012F75D00075813FA1
:10012300751881751902759F00020096C09FF59F8F
:10013300E473D09F22D083D082C09FE493C0E07445
:100143000193C0E0740293F59F2201A903BB03E569
:1001530003AF03FF0000B400002800280028307517
:10016300A000A000A000A00000080008E001F0002B
:10017300100010001000100010001000500050007C
:10018300500010001000D0070000000000000F0016
:10019300307507001000010081FF0000FF0202021A
:1001A300D890010000C89002D290010000D10F0244
:1001B300CE90010000B10202D290010000D20F02E2
:1001C300D690010000C702FFFF0100FF2002D89074
:1001D300010000CB9002D290010000001002DE90DB
:1001E300000000000002D090030000A403950B95CB
:1001F3000B950B950B950B950B950B950B950B95FC
:100203000B950B950B950BB10DCF0DAB0DFFFF01AF
:10021300E803053F10FF00FEFF01120138FCB103A4
:1002230012013812B2031201383FB2031201386FC0
:10023300B20312013886B203120138A7B2031201C6
:1002430038D8B20312013829B30312013840B3037B
:1002530012013829AD0312013840AD031201386F82
:10026300AD03120138A8AD03120138D0AD0312015A
:1002730038FEAD0312013815AE031201382CAE035C
:1002830012013842AE0312013869AE031201387C01
:10029300AE0312013892AE03120138BAAE03120153
:1002A30038228D02120138218E021201384B8E0240
:1002B300120138A08E02120138C18E02120138DAFF
:1002C3008E02120138DC8E02120138FD8E021201F9
:1002D30038009002120138BD90021201388A91024F
:1002E300120138EE91021201388592021201388808
:1002F30092021201380E9302120138519302120135
:1003030038A39302120138A69302120138DD930237
:100313001201380494021201389A9402120138230C
:1003230095021201386C9502120138799502120177
:10033300387C9502120138DA9502120138F29502DF
:100343001201386C96021201386F9602120138922C
:1003530096021201389596021201383C9702120157
:10036300385F9702120138779702120138A7970274
:10037300120138B49702120138B7970212013823D9
:100383009802120138119902120138C79902120119
:100393003876A40212013851A5021201387FA50252
:1003A300120138FFA5021201381FA6021201385D9F
:1003B300A602120138B0A60212013818A7021201D0
:1003C30038A9A70212013874A80212013883AB02BC
:1003D300120138EFAC0212013812AD021201386B70
:1003E3008D03120138FF8E031201385E8F03120151
:1003F30038BD8F03120138CB8F03120138F48F03FA
:10040300120138D0EC02120138F8EC02120138263E
:10041300ED021201385DED02120138C5ED02120141
:10042300380EEE0212013859EE0212013897EE022D
:10043300120138D4EE0212013802EF02120138A978
:10044300EF02120138B3EF02120138C0EF021201BA
:1004530038F3EF02120138B5F002120138C1F0028D
:10046300120138D9F002120138E3F00212013861A7
:10047300F1021201388CB7031201389AB703120143
:1004830038B2B703120138CAB703120138E2B7030F
:10049300120138C2D20112013860D301120138D8D7
:1004A300D301120138EDD40112013827D50112010D
:1004B30038D0D501120138A5D60112013809D80167
:1004C30012013860D801120138E7D801120138CE81
:1004D300D9011201381BDA01120138A9DA0112011C
:1004E30038CDDA01120138A2DC01120138E3DC0154
:1004F30012013805DD01120138CADD0112013890FD
:10050300DE01120138C5E0011201384891031201DE
:10051300385E9103120138849103120138AC9203BF
:10052300120138B692031201380F94031201380FE7
:100533009503120138A18403120138438503120184
:1005430038778503120138B985031201387387039D
:10055300120138E8900112013866910112013876D0
:10056300910112013859920112013863920112016B
:10057300389192011201389C92011201387593014E
:10058300120138D79301120138739401120138779D
:1005930096011201382E9801120138AA980112010E
:1005A30038879901120138B59C01120138539D0116
:1005B300120138B09E0112013823A001120138CC78
:1005C300A00112013815A1011201384CA101120139
:1005D30038F1A1011201386FA20112013842B501AD
:1005E30012013897B501120138DCB601120138EC5B
:1005F300B6011201380FB7011201385AB7011201BF
:1006030038FFB701120138F5B801120138BFB9013B
:1006130012013837BB0112013879BB0112013817B7
:10062300BC011201383DBC011201382BBE0112017D
:100633003830BE0112013811C00112013865C00102
:10064300120138C7C001120138EFC00112013893FB
:10065300C10112013855C20112013886C2011201CB
:100663003889C201120138D1C20112013813C30102
:100673001201387AC301120138F7A4031201380AB0
:10068300A50312013813A5031201382CA503120187
:100693003877A50312013852A603120138E1A603E5
:1006A3001201382CA703120138F02100120138007F
:1006B3002200120138632200120138A8220012011D
:1006C300385823001201383124001201385A24000B
:1006D3001201388A24001201389E26001201387A4A
:1006E30028001201385A2A00120138922B001201F5
:1006F300380B2E00120138F72E001201383D30005E
:100703001201384A31001201388C3100120138C409
:100713003100120138DE3100120138463200120175
:1007230038E03600120138813700120138D537001E
:10073300120138FC37001201383A380012013859D7
:100743003800120138AD3800120138B539001201F2
:10075300383E3A001201386CD80212013876D802BA
:1007630012013839D90212013888D902120138AC82
:10077300D902120138F6D9021201382EDA02120117
:100783003856DA02120138E9DA0212013825DB029F
:100793001201386ADC021201388BDC02120138AE16
:1007A300DC02120138E0DC02120138B3DD0212016F
:1007B30038EDDD0212013841DE021201388BDE0210
:1007C300120138D4DE02120138FDDE021201382292
:1007D300DF0212013809FC01120138D3FC011201B6
:1007E30038BFFD0112013835FE0112013877FE01D1
:1007F300120138A4FF01120138D4E001120138FDBF
:10080300E00112013816E1011201385BE201120125
:100813003839E30112013858E301120138E5E301E5
:1008230012013828E40112013860E501120138CCC5
:10083300E501120138C2E70112013850EA01120141
:1008430038E3EA01120138B7EB011201385AEC011F
:100853001201386DED0112013803EE0112013886E1
:10086300B403120138EFB40312013843B503120184
:100873003872B503120138168903120138838903CC
:10088300120138CE8903120138C38A03120138BF1B
:100893008B03120138A98C031201384ADF021201BB
:1008A3003891DF021201386AE00212013865E10271
:1008B30012013844E202120138B0E202120138CCCC
:1008C300E30212013833E40212013836E402120162
:1008D3003861E402120138D2E40212013875E502EC
:1008E3001201388AE502120138D2E502120138EB0F
:1008F300E502120138EEE502120138AF9803120146
:1009030038EB9803120138299903120138F399033C
:10091300120138669A03120138A19A03120138DFD3
:100923009A031201380F9B03120138369B031201FD
:1009330038A19B03120138E39B03120138186600A8
:10094300120138C86700120138316900120138D822
:1009530069001201381F6A00120138636A0012012C
:1009630038996A00120138FC6A00120138126B00D0
:100973001201385D6B001201389D6B00120138C003
:100983006B00120138116C00120138766C001201F1
:1009930038C66D00120138AF6E0012013850700076
:1009A300120138E474001201380C75001201384941
:1009B30075001201385D77001201380379001201C6
:1009C3003851A203120138C3A20312013819A30339
:1009D3001201385DA3031201387DA303120138CA43
:1009E300A30312013812A40312013865A4031201F0
:1009F30038B6A403120138A53A00120138EE3A00C2
:100A03001201381B3B001201384E3B001201385EC5
:100A13003B001201386A3B001201387B3B00120194
:100A230038503C00120138AE3C00120138E33C0060
:100A33001201387F3E00120138CB3E0012013827E5
:100A43003F00120138234000120138A9410012016E
:100A530038804200120138904200120138AC420043
:100A6300120138AF420012013869430012013832D3
:100A73004400120138D844001201383745001201EE
:100A830038BF4500120138244600120138B346002E
:100A93001201387C4700120138194800120138A0AE
:100AA3004800120138F74800120138584900120172
:100AB30038924900120138404A00120138384C007C
:100AC300120138884C00120138CB4C001201384017
:100AD3004D00120138CC4D00120138174E0012019F
:100AE300383C4E001201388D4E00120138AF4E00D3
:100AF300120138F44E00120138634F00120138A579
:100B03004F00120138A550001201382D5100120177
:100B130038FE51001201381752001201384AAE0252
:100B23001201389DAE02120138A9AE021201387EBD
:100B3300AF02120138A5AF02120138E0AF02120171
:100B4300384CB00212013880B002120138B9B00239
:100B5300120138D1B0021201382AB102120138430E
:100B6300B1021201388CB1021201389FB102120195
:100B730038B9B102120138CFB102120138EBB20217
:100B8300120138FCB30212013849B5021201382EA2
:100B9300B602120138F47F00120138F3F602120193
:100BA3003858FA0212013870FB0212013800800231
:100BB300120138F38502120138F9850212013879DE
:100BC3008802120138F2F1021201389DF202120179
:100BD300384DF30212013872F30212013869F5023B
:100BE300120138BCF60212013823A301120138574F
:100BF300A301120138ABAB01120138F7AC011201AA
:100C03003814AE011201389EAF0112013880B001D1
:100C1300120138BAB001120138DDB0011201381FD8
:100C2300B10112013869B10112013873B101120126
:100C3300381FB201120138F3B20112013847B30170
:100C4300120138A9B301120138FCB3011201382B88
:100C5300B4011201386AB401120138199503120163
:100C6300388F9503120138A59503120138E29503D5
:100C73001201381A9603120138979603120138D2DB
:100C830096031201384D9703120138899703120115
:100C9300389297031201389E9703120138B89703CD
:100CA300120138DD9703120138F397031201381C40
:100CB30098031201387F980312013812E6021201D9
:100CC3003825E6021201383FE60212013868E602CF
:100CD300120138ABE602120138EAE60212013828A3
:100CE300E7021201388DE702120138A2E70212016E
:100CF30038B9E702120138C7E702120138D6E70212
:100D0300120138EBE70212013800E8021201380B36
:100D1300E80212013817E80212013824E80212012E
:100D23003837E80212013842E80212013867E80254
:100D330012013810E90212013825E9021201383A8A
:100D4300E90212013854E9021201386FE902120173
:100D5300388CE90212013897E90212013853EA028A
:100D63001201383FEB0212013864EB021201386EB4
:100D7300EB0212013882EB02120138A1EB021201DD
:100D83003802EC0212013808EC021201380EEC02B0
:100D930012013814EC0212013820EC02120138530C
:100DA300EC021201383F9A021201386B9A021201C7
:100DB300384F9B02120138E99D02120138FF9E024F
:100DC3001201381CA002120138BFA00212013865BB
:100DD300A1021201387FEE0112013801EF01120165
:100DE30038AAEF01120138F2F00112013800F301C1
:100DF300120138E6F3011201381BF4011201383DE8
:100E0300F401120138E6F401120138B6F6011201B9
:100E130038DFF60112013857F70112013889F7015B
:100E230012013896F701120138E1F7011201380572
:100E3300F80112013856FA0112013860FB01120160
:100E430038BCFB0112013844C40112013855C501F5
:100E530012013839C60112013843C601120138653F
:100E6300C60112013871C60112013815C8011201F9
:100E73003842C80112013858C901120138ADC901FD
:100E8300120138FCCA01120138D1CB011201382DED
:100E9300CC0112013898CC01120138CDCC011201DA
:100EA3003810CD01120138DACF01120138F2CF0127
:100EB30012013883D00112013891D001120138DEBA
:100EC300D001120138ECD00112013858D1011201BE
:100ED30038D3D1011201382AD20112013870AB0381
:100EE30012013895AB031201380BAC031201387DA4
:100EF300D10212013886D1021201388FD1021201B8
:100F03003867D20212013818D40212013848D402C9
:100F130012013873D402120138A3D402120138CE5D
:100F2300D40212013802D5021201382ED502120161
:100F33003871D5021201389CD502120138E3D5026B
:100F430012013838D6021201387AD602120138D487
:100F5300D602120138FFD6021201384ED70212010F
:100F6300387ED702120138A9D702120138CCD70232
:100F73001201385DB90312013889B903120138B679
:100F8300B903120138C0B903120138D0B9031201F1
:100F9300387EC10212013888C102120138C9C10268
:100FA30012013812C2021201384CC202120138A2D5
:100FB300C202120138C3C20212013872C502120101
:100FC300387BC502120138CFC502120138F8C502B9
:100FD30012013802C60212013870C602120138002B
:100FE300C7021201385BC70212013889C702120116
:100FF3003811C80212013850C80212013885C802DC
:1010030012013897C802120138B6C802120138BF5C
:10101300C80212013886C90212013895B6031201BB
:10102300387FA903120138B5A903120138E9A903CE
:1010330012013836AB031201384D7F0012013863B9
:101043007F001201386D7F00120138B77F00120153
:1010530038008003120138138003120138D480034F
:1010630012013813810312013830810312013869E8
:101073008103120138B68103120138E8810312019A
:10108300381F820312013828840312013894840321
:1010930012013849BA0312013864B00312013887C8
:1010A300B003120138B6B0031201384EB103120176
:1010B3003866B103120138A8B103120138A27900CE
:1010C300120138E47900120138647A00120138778A
:1010D3007A00120138CC7A00120138117B00120118
:1010E30038207B00120138CF7B001201382A7C00A4
:1010F300120138797C00120138D37C00120138E0E8
:101103007D00120138D87E00120138157F001201CC
:1011130038DAB90312013849520012013813540066
:10112300120138C155001201386E5600120138EE13
:1011330056001201387457001201389D57001201EE
:1011430038EF5700120138975B00120138175C0023
:101153001201381D5D00120138565D00120138A0DE
:101163005D00120138E75E00120138125F001201C0
:1011730038685F00120138B15F001201380960005E
:101183001201385060001201387F60001201389854
:1011930060001201387D6100120138B16100120153
:1011A30038626200120138796200120138AB6200C2
:1011B3001201384D6400120138E164001201381F36
:1011C3006500120138CABB0312013800BB031201C8
:1011D300383FBB03120138E37F001201387BB803A9
:1011E3001201388BB803120138A3B8031201385720
:1011F300B90312013893B50312013818B60312016B
:10120300387CB60312013857B30312013879B3039C
:10121300120138DAB303120138ECB3031201383C7C
:10122300B4031201387AB4031201387DB4031201F6
:10123300382B9C03120138409C03120138619D0333
:10124300120138E49D03120138589E0312013872CB
:101253009E03120138859E03120138939E031201E7
:1012630038AD9E03120138C49E03120138EE9E036B
:10127300120138449F03120138BBFB02120138CF1D
:10128300FB0212013849FC021201382DFD02120142
:101293003804FF0212013869FF02120138C0FF024D
:1012A300120138F87F0012013856A703120138D50E
:1012B300A80312013836A9031201387CA9031201CD
:1012C30038CCAE031201381EAF0312013891AF03BD
:1012D300120138FEAF03120138799F03120138A3BC
:1012E3009F0312013872A0031201384EA1031201A9
:1012F30038DFA103120138B4C90212013880CA02CF
:10130300120138C1CA021201381FCB02120138730D
:10131300CB02120138D1CB0212013867CC02120181
:10132300386FCD02120138F9CE0212013897CF027D
:10133300120138FECF0212013815D00212013834DF
:10134300D102120138EBB702120138F2B8021201CE
:1013530038C8B90212013824BB02120138EEBB02AD
:10136300120138F1BB0212013831BE021201388179
:10137300BE021201381FBF0212013854C00212010B
:1013830038FCC0021201387FBB0312013849BB038A
:10139300120138D4FF02120138ACBB03E0667010AF
:1013A30008A3E066700A08A3E066700408A3E06679
:1013B30022C3E7960809E7960809E7960809E7961E
:1013C30022C3E09608A3E09608A3E09608A3E0965C
:1013D30022C008C3E096F50808A3E096420808A3D4
:1013E300E096420808A3E09645087001D3D008228E
:1013F300080808EAC0E0EBC0E086F0E7A4FA1809A1
:1014030086F0E7A42AFA180986F0E7A42AFA18094D
:1014130086F0E7A42AFA1986F0E7A4FBE5F02AFA96
:10142300190886F0E7A42BFBE5F03AFA190886F0D1
:10143300E7A42BFBE5F03AFA18180986F0E7A4C5F0
:10144300F02BFBE43AFA1908E7C5F0C6A426F6E543
:10145300F03BFBE43AFA1886F0E7A4F6E5F0082639
:10146300F6E43B08F6E43A08F6D0E0FBD0E0FA22D3
:10147300E4CFC0E0E4CEC0E0E4CDC0E0E4CCC0E023
:1014830075F020C3E633F608E633F608E633F608CC
:10149300E633F6181818EC33FCED33FDEE33FEEFAC
:1014A30033FFC3EC9709ED9709EE9709EF971919E5
:1014B30019400FFFEC97FC09ED97FD09EE97FE1914
:1014C3001906D5F0BEECF709EDF709EEF709EFF7CA
:1014D300191919D0E0FCD0E0FDD0E0FED0E0FF22E6
:1014E3006016080808C6C313C618C613C618C61361
:1014F300C618C613C6D5E0EA227009080808226098
:1015030016181818C6C333C608C633C608C633C66A
:1015130008C633C6D5E0EA22E627F60809E637F619
:101523000809E637F60809E637F622E026F608A3A7
:10153300E036F608A3E036F608A3E036F622E02606
:10154300F008A3E036F008A3E036F008A3E036F095
:1015530022C3E697F60809E697F60809E697F60820
:1015630009E697F622C3E096F008A3E096F008A3F5
:10157300E096F008A3E096F022E657F60809E6574E
:10158300F60809E657F60809E657F622E056F60884
:10159300A3E056F608A3E056F608A3E056F622E0C9
:1015A30056F008A3E056F008A3E056F008A3E0566F
:1015B300F022E066F608A3E066F608A3E066F60804
:1015C300A3E066F622E0F608A3E0F608A3E0F60837
:1015D300A3E0F622E6F008A3E6F008A3E6F008A3EA
:1015E300E6F022E0FAA3E0FBA3E0FCA3E0FD22EA9D
:1015F300F0A3EBF0A3ECF0A3EDF022CAC0E0E6F019
:10160300A308DAFAD0E0FA22CAC0E0E0A3C582CC8C
:10161300C582C583CDC583F0A3C582CCC582C583EE
:10162300CDC583DAE6D0E0CA22C3E498F8E499F999
:1016330012166D8026C3E49AFAE49BFBE920E7E9DE
:1016430012166DE498F8E499F922C3E498F8E49942
:10165300F912166DE498F8E499F9C3E49AFAE49B55
:10166300FB22EB20E7CFE920E7E0B90010BB00083D
:10167300E88AF084F8AAF022E4FBC8FA22EB70228D
:101683007B10C833C8C933C9335007C39AC3DBF2CD
:1016930080069A50012ADBEAC833F4C8C933F4C977
:1016A300FA2275F008E4C833C8C933C933C99AC9E3
:1016B3009B5004C92AC93BD5F0ECFBC833F4C8E4FA
:1016C300C9FA22600D08C6A2E713C618C613C6D509
:1016D300E0F322600C08C6C313C618C613C6D5E0D0
:1016E300F422700422600D18C6C333C608C633C67D
:1016F300D5E0F41822251810AF08F5184002151983
:101703008008F51840021519D2AF22C0D025181051
:10171300AF08F518500205198008F518500205198D
:10172300D2AFD0D0222518F58210AF08F5184002A9
:1017330015198008F51840021519D2AF85198322AF
:101743002518F582E43519F58322E4732518C5823B
:10175300C0E0E51934FFC583C0E0E518C3958224D2
:10176300F810AF0885831985821880088583198549
:101773008218D2AFCEF0A3E520F0A37808E608F0F4
:10178300A3DEFAEFF0A3E58124FAF8E608F0A3E676
:1017930008F0A3E608F0A30808E608F0A3E608F0BB
:1017A300A315811581D0E0FED0E0F81581158115D0
:1017B30081E8C0E0EEC0E0222518C582C0E0E5194B
:1017C30034FFC583C0E0E518C3958224F910AF0840
:1017D3008583198582188008858319858218D2AF7D
:1017E300CEF0A3E520F0A37808E608F0A3DEFAEF35
:1017F300F0A3E58124FBF8E608F0A3E608F0A308CC
:1018030008E608F0A3E608F0A315811581D0E0FEF1
:10181300D0E0F815811581E8C0E0EEC0E02285191B
:1018230083851882E0A3FEE0A3F5207808E0A3F601
:1018330008DFFAE0A3FFE0A3C0E0E0A3C0E0E0A379
:10184300C0E0E0A3C0E0E0A3C0E010AF08858218C9
:101853008583198008858218858319D2AFD083D0F8
:1018630082020135851983851882E0A3FEE0A3F582
:10187300207808E0A3F608DFFAE0A3FFE0A3C0E0C6
:10188300E0A3C0E0E0A3C0E0E0A3C0E010AF0885A0
:1018930082188583198008858218858319D2AFD071
:1018A30083D08222C0D02518C582C0E0E51934FF59
:1018B300C583C0E0E518C3958224F310AF08858380
:1018C300198582188008858319858218D2AFC8F0DC
:1018D300A3E9F0A3EAF0A3EBF0A37908E709F0A3E7
:1018E300D8FAECF0A3EDF0A3EEF0A3EFF0A3D0E071
:1018F300F0A3D0E0F0A3D0E0F0A3E520F0A3E5F05F
:10190300F0A322851983851882E0C0E0A3E0F9A340
:10191300E0FAA3E0FBA37808E0F608A3DFFAE0FC13
:10192300A3E0FDA3E0FEA3E0FFA3E0C0E0A3E0C0CB
:10193300E0A3E0F5D0A3E0F520A3E0A3F5F010AF1A
:10194300088583198582188008858319858218D2B2
:10195300AFD082D083D0E0F8D0E032740480067434
:101963000280027401C0E0F404121728D0E01215BB
:10197300FE227404800474028000CCC0E0EDC0E059
:10198300E518C39CCCAD1950011D10AF068C188D02
:101993001980068C188D19D2AF12160BD0E0FDD02A
:1019A300E0FC22D083D082E9C0E0E493A3C386F0B5
:1019B300C5F095F0F908E493A386F0C5F095F070AF
:1019C3000BE493A3C3994005E9048002A3E475F0F3
:1019D30002A42582F582E5F03583F583D0E0F9E4AE
:1019E30093A3C0E0E493C0E022D083D082ECC0E0B4
:1019F300EDC0E0E493A3FCE493A3FDED4C600D1272
:101A03001A38EC24FFFCED34FFFD80EFE493A3FCD4
:101A1300E493A3FDED4C600D121A77EC24FFFCED6B
:101A230034FFFD80EFD0E0FDD0E0FCE493A3C0E001
:101A3300E493C0E022C0E0C3E49396087401939654
:101A430018400FE4936670080874019366187000D9
:101A53007019A3A3C3E49396087401939618A3A3E0
:101A6300400DD0E0D0E0D0E0021A28A3A3A3A3A3A3
:101A7300A3D0E022C0E0C0F088F0E49366700808C9
:101A830074019366187000A8F0A3A3700BD0F0D074
:0F1A9300E0D0E0D0E0021A28A3A3D0F0D0E022E8
:101AA40074F51217BBEAFEEBFFEE2434F8EF3400B2
:101AB400F988088909EE2435121BDCF8EE24371264
:101AC4001BDCF50AEC850AF0A4FCAAF0850AF0ED0B
:101AD400A42AFDE82CF8E43DF97A257B0012166D62
:101AE400EA850882850983F05407F87401B8000276
:101AF4008004C333D8FCC0E0E0131313541FF8EE82
:101B040028F8EF3400F9E8245DF582E93400F58320
:101B1400D0E0F8E0586008850882850983801DEECE
:101B24002436121BDCF5F0EA84A8F0EE28F8EF3432
:101B340000F9E82438F582E93400F583E0F97F04FC
:101B440002186774F51217BBEAFEEBFFEE24341299
:101B54001BDCC0E0EE2435F582EF3400F583D0E0E1
:101B6400F08E828F83A3A3A3A3A3E0FAA3E0FB8E4A
:101B7400828F83A3A3A3A3A3A3A3E0FCA3E0FDEC10
:101B8400C39AF50AED9BF50BEE2480F508EF3400BB
:101B9400F509850882F583E06401702BEE2481F554
:101BA40082EF3400F583121979121BE574021217BF
:101BB4000EE960137CE07D07EEFAEFFB120AB185B3
:101BC4000882850983E4F0AC0AAD0BEEFAEFFB1250
:101BD4001AA412218A021B42F582EF3400F583E035
:101BE40022C082C083851882851983E0F8A3E0F9B6
:101BF400C3EA9CEB9D500BC3EC98ED99401279011C
:101C04008010C3EA98EB9940F5C3EC98ED9950EE37
:101C14007900D083D0822200851B87851CC622C010
:101C2400E074EF1218A7759B00906182E0A2E64071
:101C340003021CE4E591A2E64003021CE47591BF93
:101C4400900499E064057008120C8B120C978003C1
:101C5400120C91751B00120D09E990049AF0790099
:101C6400120CEB120A1B7A017B00900498E0F91223
:101C74000FF1907803E064426003021D2D90081573
:101C8400E014F06003021D2DC2AF121C9100781EF7
:101C9400D0E0F618D0E0F6E59F5407F9700590906F
:101CA40034800390903078081215C8E9C4C0E078F5
:101CB4001DE65508F50808E65509F509740B78087A
:101CC4001216D6D0E02508F8906270E0A2E740F83A
:101CD400E8C333906272F0906270E0D2E0F0804921
:101CE400E0A2E55024E591A2E5501E7591DF900431
:101CF40099E0640D70139004BBE004F06428700252
:101D0400E4F07A00E0F9120D99906181E0A2E350C9
:101D140009E5E9A2E3500375E9F7A3E0A2E7500956
:101D2400E591A2E7500375917F7F04021906C0E094
:101D3400C0D0C082C083906183E0A2E05009E5BFB7
:101D4400A2E0500375BFFEE0A2E15009E5BFA2E1A5
:101D5400500375BFFDE0A2E25009E5BFA2E25003C3
:101D640075BFFBE0A2E35009E5BFA2E3500375BFD2
:101D7400F7E0A2E45009E5BFA2E4500375BFEFE029
:101D8400A2E55009E5BFA2E5500375BFDFE0A2E676
:101D94005009E5BFA2E6500375BFBFD083D082D0FF
:101DA400D0D0E032C0E074F21218A7E5A7A2E45044
:101DB4000FE5A1A2E4500953A7EF75A1EF121DFC92
:101DC400E5A7A2E5500CE5A1A2E5500653A7DF75EF
:101DD400A1DFE5A7A2E15009E5A1A2E1500375A1A5
:101DE400FDE5A7A2E2500CE5A1A2E2500653A7FB31
:101DF40075A1FB7F0102190674F81217BB751B014C
:101E0400900499E0640670077A007B00120C73A2B8
:101E1400AFE433FED2AF90049FE0640170187A20DF
:101E24007B00900498E0F91210757A207B009004EE
:101E340098E0F9120FF7906182E0D2E6F09008146E
:101E4400E0602185C61C801690049EE06401700841
:101E5400E5C654F84405F5C653BEFC121C1C7401B7
:101E6400651B60E4EEA2E092AF7F0102186774E99B
:101E74001217BB74FA1216F8EAFEEBFF8C088D09F0
:101E8400900499E024F7C3940550069090B0021F83
:101E940099120C138A0A8B0BEA450B7003021F96E6
:101EA400120CA98A0C8B0D120CA9EA650C7003EBB9
:101EB400650D60ECEEFCEFFD851882851983AA821E
:101EC400AB83120CAF850A82850B83A3A3780C1213
:101ED40015C890906C780C12158F8518828519831B
:101EE40078141215C890906C781412158F780C79A8
:101EF400141213B4501F780C791412155490905086
:101F0400780C1213D44047850C10850D11850E12E0
:101F1400850F1380418514108515118516128517B8
:101F2400137810790C12155490905078101213D421
:101F3400501C75100075110075120075130178108E
:101F440079141215547810790C12151B800890908E
:101F5400B078101215C8740978101214FC9090749B
:101F6400780C1215C87810790C121473900499E047
:101F74006408600AE064066005E06405701C9090E3
:101F84001C78101213D45012909038781012152E19
:101F9400800890902878101215C8850882850983D6
:101FA40078101215D7740612170E7F100218677472
:101FB400F71217BB120CC1900812E0640170109064
:101FC4006245E4F0A3F053F4F343FE0C5390F31290
:101FD4000C61E5C654804449F5C6E59E547F6449C6
:101FE40070F8906185740FF0900810E0F47002A30B
:101FF400E0602C750801750900900810E07808125B
:1020040016E5E508F4FAA3E0600814600A14600C0D
:10201400800DEA52808008EA52908003EA52A07947
:10202400007F0202186774F71217BBE9FE9021E8DB
:10203400E493F46008E493F91209FD800953C6801F
:10204400E59E547F70FA120C67900812E0640170E8
:1020540003120A33900810E0F47002A3E0602A75BA
:102064000801750900900810E078081216E5AA081E
:10207400A3E0600814600A14600C800DEA428080BA
:1020840008EA42908003EA42A0120C138A088B09E2
:10209400A808A909E8496017E5E170FCE82414F5EB
:1020A40082E93400F583E0F874FF68600288E17423
:1020B400016E700A7A01900498E0F912104502202A
:1020C4002574F11217BB8A088B098C0A8D0B740FC7
:1020D400121743780C1215C890906C780812158F5B
:1020E40090906C780C12158F7808790C1213B450F8
:1020F400157808790C12155490905078081213D45E
:10210400401579018013780C790812155490905079
:10211400780C1213D440EB79007F0802186774ED31
:102124001217BB8A088B098C0A8D0B741312174380
:10213400780C1215C890906C780812158F90906CDA
:10214400780C12158F780C79081213B440117808A2
:10215400790C121554AA08AB09AC0AAD0B80227590
:1021640010007511007512007513017810790C12A6
:1021740015547810790812151BAA10AB11AC12ADC6
:10218400137F0C021867C082C083E9906000F0D00E
:1021940083D08222C0E074F21218A7A2AFE433FE07
:1021A400D2AFE589A2E04006E589A2E1500312120C
:1021B4001F758900758900C2C5751A00EEA2E092E8
:1021C400AF7F01021906C0E0C0D0E8C0E0E5A8D2A4
:1021D400AFC2C7751A00A2E792AFD0E0F8D0D0D052
:0221E400E032E7
:1021E800FFFFFFFFFFFFFFFFC082C083E9900FFFE3
:1021F800F0D083D08202013574F612174FE99003AC
:1022080064F07CA47D037AFF7BFF1207337A008A8F
:1022180008750900740278081216E574652508F82F
:102228007403350912224FA3F00AEAC3940340DF6E
:1022380079051206C1900364E0F91205E97A4B7B2F
:10224800071209010237D0F98882898374FF1222A4
:102258005CE4F022F0A312365DA32274F412174F47
:102268008A088B09EB54806030900364E0F9120F00
:10227800D98A0A8B0BAE0AAF0BEE4F60138E828F92
:1022880083E064B070031206D3EEFAEFFB120FC7B7
:10229800AA08E5096480FB80047A007B0002242CEC
:1022A80074F212174F74FC1216F8EAFEEBFF741260
:1022B8001217431236A6EE4F700302234B74021214
:1022C8001743EEF0A3EF122687ECF0A3ED12268752
:1022D800AA82AB831205E3E9F50A706AE5084509A5
:1022E80060648E828F83123687EE4F60567A067B43
:1022F8000012102D8A0C8B0DA80CA90DE849700549
:10230800750A13804188828983E412225CEEF0A367
:10231800EF1236B7E508F0A3E509F090037212242E
:10232800269003727005123144801B1231328003EB
:10233800EAFCEBFD8C828D8312242670F38C828D4F
:102348008380E3750A02A90A740412170E02389AE8
:1023580074F212174F890AE975F045A4FEAFF090A0
:102368000371E4F090036712242660281210337971
:10237800008908750900740278081216E574672543
:1023880008F58274033509F583E4F0A3F009E9C37D
:10239800940340DDEEFAEFFB12102D8A088B09EA50
:1023A80045096075EEFCEFFD7900120FAF7D008DD9
:1023B8000C750D007402780C1216E57467250CF87C
:1023C8007403350DF9E50AF5F0EDA475F017A4FAD4
:1023D800ABF0E5082AFAE5093BFB88828983EAF035
:1023E800A3EBF07E00801BEE75F017A4FAABF08823
:1023F800828983E02AFCA3E03B8C82F583E4F0A386
:10240800F00EEEC3950A40DF0DEDC3940340A0E53E
:102418000A900371F079008002791302389A122D1C
:10242800D6EA4B227F0402182174F412174F790060
:10243800EAA2E0501B750804750990780812196221
:102448007C047D007A017B101206BB740212170E01
:1024580080D2C082C0839003721236A149601C8862
:10246800828983A3A3E06A7003A3E06B88828983CF
:1024780070E7A3A3A3A3122DD280047A007B0002E5
:1024880021F974EE12174F74FC1216F8EAFEEBFFEE
:10249800851882851983E4F0A3F0EE240212312412
:1024A800EE2405123664EE2404F50EEF122A31E00C
:1024B80024FE603924FC604624FE605224FE605EDF
:1024C80024FE700302259D24FE700302260124FECB
:1024D800700302261024FE700302261F24FC7003DA
:1024E80002262E24FE700302263D02267A90038BD4
:1024F8007417F0A3E412268F12025902267A85185F
:1025080082851983AC82AD831206D902264A8518C2
:1025180082851983AC82AD831206DF02264A850CB8
:1025280008850D097402121743AC82AD83850882B1
:10253800850983122DD21206078A0C8B0DAC0CADBF
:102548000DEC4D603BE4F50CF50D780C1219627535
:102558000C8B750D03780C121962750C8C750D03B4
:10256800780C12196274081217431219791239A4D7
:1025780012170EE9F50C700B122DC8120271800F9C
:10258800750C0185088285098312267D12314485E0
:102598000C0802264D7402121743AC82AD83850CD9
:1025A80082850D83122B84603C850C82850D83A364
:1025B800A312197975108B751103781012196275A9
:1025C800108C7511037810121962740812174312CF
:1025D80019791239A412170EE9F509700B122DC8D2
:1025E800120277800F750901850C82850D831226EA
:1025F8007D123144850908804C851882851983AC81
:1026080082AD831206E5803A851882851983AC82EB
:10261800AD831206EB802B851882851983AC82ADB9
:10262800831206F1801C851882851983AC82AD83DC
:102638001206F7800D851882851983AC82AD831246
:1026480006FDE9F508E50860298E828F83A3E0641A
:1026580014601F850E82850F83E090038B122687F6
:1026680012397C90038C123144E508A312268F128C
:10267800025302303312398085188285198322F07B
:1026880085188285198322F07C8B7D03850A8285D3
:102698000B83122DD62274EE12174F74FC1216F803
:1026A8008A0A8B0B8C0E8D0FEA2405F508EB340093
:1026B800F5097C157D0079007A8B7B03120FAFE555
:1026C800082402F50CE509123667851882851983F6
:1026D8008582108583117810121962850882850910
:1026E80083A3A3A3A3122B7B121962E5082405F583
:1026F80010E5093400F5117810121962850C8285ED
:102708000D83122EE9120601740612170E8A108B19
:1027180011AE10AF11E50A2402F50AE50B123127B4
:10272800EE4F700302285C80177402121743122DB3
:10273800D288828983EAF0A3EBF090038BE004F05F
:1027480090038BE0C39405400302285CE4F510F580
:102758001178101219627510747511037810121916
:1027680062751075751103781012196274061217C4
:10277800431219797910EEFCEFFD1239A612170EE3
:10278800E9705E850882850983A3A3A3A3A3A3A3F5
:10279800E0F8900374E0687048122B7B1219627C91
:1027A800757D03E5082408FAE5093400FB120FA932
:1027B800740212170EE960298E828F83A3A3A3A344
:1027C800122DD290038BE0F510740278101216E5E2
:1027D800748C2510F58274033511F583EAF0A3EBA8
:1027E800F07402121743858210858311781012192C
:1027F800627402121743121979850C82850D8312AF
:102808002DF812170E8A108B11AE10AF1190038B92
:10281800E0F510751100740278101216E5748B2516
:1028280010F874033511F988828983A3122426705D
:1028380003022728E82403080808E93400F9EE4FC2
:1028480060030227318882898374FFF0A3F0900324
:102858008BE004F090038BE0600A122DC812026529
:102868007900800B85088285098312313B790A0239
:10287800303374EA12174F74FE1216F88C128D1347
:10288800EA2405F50CEB12398E12368B75080075A3
:102898000900EA2402F510EB3400F5118518828549
:1028A800198385820A85830B780A121962850C823E
:1028B800850D83A3A3A3A3122A47121962E50C244A
:1028C80005F50AE50D123127780A121962850C827E
:1028D800850D83122A4B120601740612170E8A0AF6
:1028E8008B0BEA450B70030229FCEA2404F50EEB76
:1028F800122A3112368B8A828B83A3A3A3E0F9852F
:102908001082851183122DDC60030229FCE4F51482
:10291800F515781412196275147475150378141264
:1029280019627514757515037814121962740612F4
:1029380017431219797913AC0AAD0B8510828511EA
:10294800831239AC12170EE9F50960030229FC90CD
:102958000374E0F8E5087009E0240290038CF08025
:102968001790038CE0FCE82402FAE43400FBEA6CDC
:102978007001EB6003022A00850882AA82122B727A
:102988009414122B6A506D850E82850F83E0C0E087
:10299800122DA2D0E0F00508850E82850F83A3E0F2
:1029A800C0E085080A748D250AF58274033400F5A1
:1029B80083D0E0F00508900374122A471219627C4C
:1029C800757D0385080A748D250A122A3B12170E95
:1029D800900374E02508F50874FF6E700374FF6FA8
:1029E8006012EE24010EEF3400FFE508C394145082
:1029F800030228A4E5086013122DE68510828511CC
:102A080083122DD212026B79008014E509700375C8
:102A1800090A851282851383EEF0A3EFF0A90974E1
:102A28000212170E7F0E0218213400F50F850E8250
:102A3800F58322FA74033400FB120F9774022212F2
:102A480036C622A3A3122A5122123132FDEEFAEF22
:102A5800FB2274EE12174F74FE1216F88C0E8D0FAF
:102A6800EA2405F50CEB123667750B0090038BE42E
:102A7800F0F50AEA2402F508EB3400F509804490E1
:102A8800038BE0FA900374E0F8122B729417122B60
:102A98006A400D90038BE0F87416C398900374F0A5
:102AA800122B7B1219627C757D03748C2AFA7403CD
:102AB800122A3E12170E900374E0F890038BE02858
:102AC800F0050AE50C2416F582E50D3400F583E0DF
:102AD800F8E50AC398507490038BE0C39416506BC2
:102AE800E50AC333F8E433F9E50C28FEE50D39FFB0
:102AF800851882851983AC82AD838E828F83122BD1
:102B0800847008750B011231378050E4F510F51107
:102B18007810121962751074751103781012196201
:102B2800751075751103781012196274061217431F
:102B380012197979168508828509831239AC12171A
:102B48000EE9F50B7003022A8780BB7C8B7D038519
:102B58000882850983122DD212027DA90B74020204
:102B68003035E99400C365D03322EA28F8E434000C
:102B7800F9E822E0F51075110078102212302A8A3F
:102B8800108B11AC10AD11EC4D2274EA12174F7472
:102B9800FC1216F88A0C8B0D8C128D13EA2405F59D
:102BA8000AEB123127750800750900E50A2402F5B9
:102BB80010E50B3400F511740212174385820E8557
:102BC800830F780E121962850A82850B83A3A3A34B
:102BD800A312366C121962E50A2405F50EE50B34CA
:102BE80000F50F780E121962851082851183123153
:102BF8002D122DCC120601740612170E8A0E8B0F99
:102C0800AE0EAF0FE50C2402F50EE50D3400F50FFE
:102C180080388882898374FFF00508122DAE74FF0E
:102C2800F00508900374E0F50C750D00780C121986
:102C3800627C757D0385080C748D250C122A3B1265
:102C4800170E900374E02508F508EE4F60278E8272
:102C58008F83A3A3A3E0F9850E82850F83122DDC51
:102C6800EE2404123664E96027850C82850D8312F0
:102C78002DBE123144E5087003022D88122DE68519
:102C88000E82850F83122DD21202837900022D9DA8
:102C9800E4F514F515781412196275147475150392
:102CA800781412196275147575150378141219625F
:102CB80074081217431219797911EEFCEFFD850E8D
:102CC80082850F831239AC12170EE9F509709A85BF
:102CD8000882AA82EA9003747009E0240490038CA5
:102CE800F08025E0F890038CE0F514E82404FCE477
:102CF8003400FDEC65147001ED7081122B72941292
:102D0800122B6A4003022C84850C82850D83E0C057
:102D1800E0122DA2D0E0F00508850C82850D83A372
:102D2800E0C0E0122DAED0E0122E0185820C858322
:102D38000D780C1219627404121743121979851050
:102D480082851183122DF812170E8A0C8B0DAE0C8A
:102D5800AF0D85080C748D250CF874033400F9EE5A
:102D68004F7003022C1A851882851983E08882899E
:102D780083122E01A3E0C0E0122DAED0E0022C2871
:102D8800E509700375090A850A82850B83122DBE31
:102D9800123144A9097404022A29748D2AF582740F
:102DA800033400F5832285080C748D250CF5827494
:102DB800033400F583221239808512828513832219
:102DC8007C8B7D03850A82850B83122DD622E0FA3F
:102DD800A3E0FB22122DD61205EFE9F50922900394
:102DE8008CE0F5F0E5088490038BF07C8B7D032262
:102DF800122A5112060D740422F0050885188285DE
:102E080019832274EC12174F74FE1216F88A088B75
:102E1800098C0E8D0FEA2405FEEB3400FF123014E6
:102E2800EE2418123664EA450B7003022EB7122FEF
:102E3800FD5029122EDC8A108B11EA4511606B793E
:102E480012AC0AAD0B850882850983122DD2851034
:102E58008285118312174DE9F50A7058E4F50AF5D1
:102E68000B780A1219628E828F83A3A3E0F50A7881
:102E78000A121962EE2403123124780A1219628E9A
:102E8800828F83122EE9120721740612170EE9F5B4
:102E98000A7021850C82850D83E0701F8508828564
:102EA8000983122DD21202898011750A0E800975C4
:102EB8000A018004E50A6003123137850C82850D0A
:102EC80083E0600479008002A90A740212170E7F59
:102ED8000C021821851882851983122DD612070F26
:102EE80022123132FD850882850983122DD622747B
:102EF800EE12174F74FE1216F88A088B098C0C8D87
:102F08000DEA2405FEEB3400FF750E00123014EABA
:102F1800450B7003022FDB122FFD502C122EDC8A7A
:102F28000E8B0FEA450F604A7912AC0AAD0B850883
:102F380082850983122DD2850E82850F8312174D43
:102F4800E9F50E6003022FDE8508828509831232B7
:102F58003EAA0AFB122FEF70147AFF7BFF122FEFA5
:102F6800606C88828983E50AF0A3E50BF0750A0096
:102F78008007750E0E805F050A900371E0FAE50A76
:102F8800C39A504AE50A75F017A4FAABF08882890B
:102F980083A3A3E02AFAA3E03BFB8A828B83123146
:102FA8002DEC4D70D2750A17750B00780A1219624C
:102FB800EEFCEFFD120F97740212170EEEFCEFFDF8
:102FC800850882850983122DD212028F8014750E0E
:102FD800098003750E01123978850C82850D8312DC
:102FE8003144A90E022B651207038A108B11A81011
:102FF800A911E84922E5082402F508E5093400F595
:10300800098A828B83A3A3A3E0A2E522851882857F
:103018001983AC82AD838E828F8312302A8A0A8B01
:103028000B22E0FAA3E0FB12060722740412170E23
:103038007F0A02182174EC12174F8C108D11EA24A4
:1030480005F50CEB123667750F00EA2402F50AEB5A
:10305800123127850A82F583122DD2123A33700372
:10306800023119750E008071850C82850D83E0642C
:1030780001704F8E828F83A3A31219798E828F835A
:10308800A3A3A3A3E0F5127513007812121962EE38
:103098002405F512EF3400F5137812121962122D77
:1030A800CC120721740612170EE9F50F6014850C6F
:1030B80082850D83E4F01239788510828511831298
:1030C80031447C177D007900EEFAEFFB120FAF8ECA
:1030D800828F83E4F0A3F0050E900371E0F8E50E0B
:1030E800C398501EE50E75F017A4F8A9F08508825C
:1030F800850983A3A312399812312DEC4D60030280
:10310800307085088285098374FFF0A3F0E50F709D
:1031180006122DCC120295A90F022ED7F50AEF340C
:1031280000F50B22A3123132FD22E0FCA3E0228E2F
:10313800828F83123980850E82850F83E8F0A3E998
:10314800F02274F612174F7C008C0875090074027F
:1031580078081216E512317C6A7003A3E06B7006DA
:10316800E8FAE9FB800B0CECC3940340DC7A007BA3
:10317800000237D074652508F874033509F9888288
:103188008983E02274F712174F7F00EF75F003A4CC
:10319800F8A9F0EC28F8ED39F988828983E06A709B
:1031A80003A3E06B7006E8FAE9FB800B0FEFC3940A
:1031B8000440D87A007B007F0102182174F61217A8
:1031C8004F12377570067A007B008007A3A3A3A36C
:1031D800122DD20237D074F212174FE9FE740E1274
:1031E800174312323E74101217431236A68C828D82
:1031F80083E06402703BA312397C88828983E0F5FE
:103208000CA3E0F9A80C7402687003742969702192
:10321800750C02750D00780C121962780812196283
:10322800780A121962EEF9120745740612170E8011
:1032380002790102389AE0F50AA3E0F50B2274E856
:1032480012174F74FB1216F8E9851882851983F056
:103258008A168B178C0E8D0F741F1217431236A601
:10326800742112174312323E742312174312368BFD
:103278007510008C828D83A3A3A3E0A2E4502A7466
:103288001D121743122EE28A828B83E582458370D2
:1032980003023352790AAC0EAD0FAA16AB171217F8
:1032A8004DE9F5106003023355850E82850F83E0E2
:1032B8006402600302360BA312397C8508828509F3
:1032C80083A3858212858313E50E2406F50CE50F8A
:1032D80012366788828983E0FAA3E0F9EA2400F5C8
:1032E80014E439F51578141219EC010000280128A6
:1032F8001A3307000228F1330328613300291B35EC
:10330800012943350229EA3403291B350429AC3540
:103318000B36EE4F703E850C82850D831236A1FA6E
:10332800E9FB8A828B83E0850A82850B831236BD8E
:103338001219628A828B83A3123132FDAA08AB0963
:10334800120F97740212170E800375100EA91074CD
:103358000502398675100B80F4EE4F70F7850A82E6
:10336800850B837401F0123691850882850983F0F4
:103378007C007D00850E82850F83A3A3A3A3E02490
:1033880001FAA3E03400FB120607EA4B60418A8287
:103398008B83E02402F8850A82850B83E028F0EA13
:1033A8002404F8EB3400F988828983E08512828549
:1033B80013831236CF1236BD1219628A828B83129A
:1033C800312CE5082403FAE5093400FB023348856B
:1033D8000A82850B83E02404F07C047D007900AA2E
:1033E80012AB13120FAF023355EE4F600302335C7A
:1033F800123691FEA3E0FF850A82850B837404F0E0
:10340800EE850882850983F0EF851282851383F0A3
:103418007403121743AC82AD83EEFAEFFB123763E5
:1034280070030234C78A828B83A3A3123687740180
:1034380012174385820E85830F780E121962740560
:103448001217431219797CFF7DFF12060D740412BE
:10345800170E8B0FEA450F7033850C82850D83128A
:10346800366C121962850C82850D83A31219797C3A
:10347800027D007AE47B90120385740412170EE92A
:10348800700A740112174374FFF0A3F08E828F83C1
:10349800E064027034750C02750D00780C12196224
:1034A8008E828F8312312CE5082404FAE509122A4A
:1034B8003E12170E850A82850B83E0240280097468
:1034C80001121743EEF0A3EFF074011217431236FE
:1034D8007DF07401121743A3123675A3A3A3F0025B
:1034E8003355EE4F600302335C850C82850D8312E1
:1034F800312DAA16AB17120739850A82850B8374FA
:1035080002F0EA850882850983F085128285138393
:10351800EB80CBEE4F600302335C123691F8A3E0E8
:10352800F9850A82850B837402F0E885088285098B
:1035380083F0E985128285138380A3850C82850D2B
:1035480083122DD2120F91EAFC8C82A882C39EE4CA
:103558009F404BE86E7001EF70047C00801F851857
:1035680082851983E0FAEE2AFAEF3400FBC3EA9861
:10357800EB94005003E08004EECCC39CFCEC850A7D
:1035880082850B83F08C0A750B00780A1219628504
:103598000C82850D83E02EFCA3E03F0233437510B7
:1035A80007023355EE4F600302335C850C82850DAC
:1035B8008312397C850A82850B837407F088828997
:1035C8008312367512365DE0851282851383F0E822
:1035D8002402FAE93400FB8A828B8312367512368C
:1035E800AE12367DA31236B7123681F0E82405F8FC
:1035F800E93400F988828983123681A31236CFA371
:103608000234E3741D12174312376E7003023352EB
:1036180012397C880C890DE8450D70030233528EEF
:10362800108F117810121962780A1219627808122C
:1036380019627406121743E0F9AC0EAD0FAA16AB67
:1036480017850C82850D8312174D740612170EE923
:10365800F510023355F088828983A322F50CEF34E4
:1036680000F50D22E0F50E750F00780E22E08508B2
:1036780082850983221236D6221236D6A3A322A324
:10368800A3A3A3E0FEA3E0FF22850C82850D83E0BF
:10369800F8A3E0F5838882E022123980E822E0F579
:1036A80008A3E0F50922A3A3F08A828B83A3221240
:1036B800225EA3A322F08A828B831236C622E0F50B
:1036C8000A750B00780A2212365D1236D622E0857A
:1036D8000882850983A3A32274EE12174F74FE1281
:1036E80016F88A0A8B0BECFAEDFB7414121743E0F8
:1036F800F510A3E0F5117416121743E0FE741812C2
:103708001743E0F50EA3E0F50F851882851983AC01
:1037180082AD83123763603E85188285198312371C
:103728006E602FA3A31236A6E50845096024780E1B
:103738001219627810121962EEF9AC0CAD0DAA0AD2
:10374800AB0B85088285098312174D740412170E76
:103758008006790E80027901022B651206078A0C11
:103768008B0DEA450D22122DD6123775221206CD81
:103778008A828B83E58245832274F612174F74FE82
:103788001216F8740C1217431236A185188285197F
:1037980083F07401121743E9F0E4F508F509780895
:1037A8001219627508027808121962740412174314
:1037B8008582088583097808121962120721740620
:1037C80012170E740212170E7F0202182174F712D4
:1037D800174FEAFEEBFF89087CA47D03120739EA3C
:1037E8005402600BA908EEFAEFFB1205FB80027980
:1037F800010231BF74F612174F74FF6A700374FF29
:103808006B701B7B00EB75F003A4F8A9F0EC28F8AB
:10381800ED3912224F0BEBC39404501480E71207C2
:10382800098A088B09A808A909E8496003122250E7
:10383800809674F612174F1207098A828B83E582E5
:1038480045836006A3A3E0FA80027A007B00023772
:10385800D074F212174F8A088B09ECFEEDFF740E34
:10386800121743E0F50A12389F701CEEFCEFFD7A40
:10387800FF7BFF12389F7004791180168882898334
:10388800E508F0A3E509F088828983A3A3E50AF097
:1038980079007F060218211207098A0C8B0DA80CE3
:1038A800A90DE8492274EE12174FEAFEEBFF8C08C7
:1038B8008D09890C741212174312397C741412176B
:1038C8004312312D7416121743122DD2750D00ECC8
:1038D8004D60030239707402650C600302396B880D
:1038E800828983123132F9EC2400F50EE439F50FA0
:1038F800EAF4F8EBF4F9EC58F8E50F59F9E84970EF
:103908005DE5082406F8E5093400F9880A890B887A
:1039180082F583122A4D1207398A108B11E50E653C
:10392800107004E50F65116042780E121962850A5D
:1039380082850B83122A4D12073F740212170EE973
:10394800F50D7027780E121962850882850983A300
:10395800A3122A4B120751740212170E800D750D0F
:10396800808008750D0D8003750D0BA90D02303888
:103978008E828F8312398022E0F8A3E0F922121791
:103988000E7F100218213400F50D850C82F5832274
:10399800E028FEA3E039FF8E828F83227916850AFC
:1039A80082850B83122DD612071B74082274F2121B
:1039B800174FEAFEEBFF890B7401650B600E74026A
:1039C800650B7064790112091FE9705CEEFAEFFB70
:1039D800123A336048750A00800B7C177D00790025
:1039E800120FAF050A900371E0F8E50AC398502258
:1039F800E50A75F017A4F8A9F0850882850983A35C
:103A0800A3E028FAA3E039FB8A828B831236A14906
:103A180070C885088285098374FFF0A3F07CA47DB3
:103A280003EEFAEFFB12073302389A1207038A08EB
:103A38008B09EA45092274F212174F8A088B09ECA0
:103A4800FEEDFF740E12174312323E900FFFE0F4A2
:103A5800603D7A097B00120FC1EA4B60328A828B83
:103A68008374B1F0A3E41236B0A31236AEA3E5080E
:103A7800F0A3E509123A9AEEF0A3EF123A9AA3A33B
:103A8800E50AF0A3E50BF0900FFFE0F9120FCD0265
:103A9800389AF08A828B83A3A3A3A3A322C082C0EF
:103AA800839061907404F0A37448F0A3E4F09061EB
:103AB800807440F09061BC7407F09061877469F07D
:103AC8009061B67416F07900120A217902120A2759
:103AD8009021E8E493F46006E493F91209FD79056E
:103AE800120D7B023EB2C082C083E9540FF9906187
:103AF80085E0696012E5C654804449F5C6E59E54E0
:103B08007F644970F8E9F053C680E59E547F70FAE7
:103B1800023EB274F712174FE5A8FE53A87E120AA8
:103B280009C2BA539AFEC289759B00C2C2120A0F13
:103B380075A91175B905120A15D2BA439A0174808C
:103B48005E42A8024DBAC082C083906181E4F0A3AE
:103B5800F0A3F0023EB275E90075910075BF00024E
:103B68000135C082C083906181E4F0A374C0F0A3E2
:103B7800E480DFC082C08374F81216F890049B12A8
:103B8800452DE8497003023C3290049BE0544060A4
:103B9800237908851882851983AA82AB83120B2999
:103BA800851882851983AA82AB831207BD90049B6E
:103BB800E054BFF0E054806010790C7A367B08122C
:103BC8000B2990049BE0547FF0E0A2E050087900B4
:103BD800123C3A54FEF0E0540260087901123C3A73
:103BE80054FDF0E0540460087900123C4554FBF0A1
:103BF800E0540860087901123C4554F7F0E054108D
:103C080060087902123C4554EFF0E05420600879CE
:103C180003123C4554DFF0A3E05401600D120A334F
:103C28001207CF90049CE054FEF0740812170E029D
:103C38003EB2120A211207C390049BE022120A27FF
:103C48001207C990049BE022C082C083E960051472
:103C5800602A804F90619A7433F0A37455F0906194
:103C6800A0743AF0900812E064017009C2919004BF
:103C78009D7467802D90049D7461802690619A746C
:103C88003FF0A3745AF09061A0747FF0900812E09E
:103C980064017009D29190049D7471800590049D0F
:103CA800746AF0023EB2C082C083E9600B14600DF2
:103CB80014600F14601180209021EC80159021ED84
:103CC80080109021EE800B900812E0640160F39060
:103CD80021EFE493906186F0023EB274EE12174F22
:103CE80074F41216F8851882851983AC82AD837531
:103CF80083907582A8740412160B9021EC93F460DB
:103D080003023E75907808E0C394025003023E55C2
:103D18007404121743AC82AD8375838F7582EE7479
:103D28000812160BF97AFF7BFF7FFF7E00898285D8
:103D38008210801874086E7003023E0A74096E704F
:103D480003023E0A740A6E7003023E0AE510C3338A
:103D5800FCE433FD7404121743E5822CF582E583F5
:103D68003DF583E0F50EA3E0F50F8E0875090074A4
:103D78000278081216E574482508FC74783509FDA0
:103D88008C828D8378081215C8740878081214E399
:103D980085080C85090D8C828D8378081215C874E6
:103DA8001878081214E3E50C4508F508E50DF5093F
:103DB800C3E50E9508E50F95098C828D8378081266
:103DC80015C88C828D8378081215C8741878084035
:103DD800141214E3E50C4508FCAD0DE50EC39CFC7C
:103DE800E50F9D800F1214E3E50C4508C3950EFC02
:103DF800E50D950FFDC3EC9AED9B5006ECFAEDFB33
:103E0800EEFF0EEEC394135003023D3C74FF6A703C
:103E18000374FF6B602D8F08740278081216E5741E
:103E280048124A3B74783509F58378081215C88515
:103E38001882851983E5822510F582E58312497970
:103E4800E508F009E9C394045003023D2D75080103
:103E580075090078081219627402121743AC82AD12
:103E6800837A7B7B081211FB740212170E740C12F2
:103E7800170E7F0A021821C082C08390618674D50C
:103E8800F09061AE7468F0A3746AF090624574FBB8
:103E9800F0A304F053F4FD43FE029008127401F0FD
:103EA8007900120A218003124014D083D0820201C3
:103EB800357F04021821124585940622E0C4333365
:103EC80054C022C082C0839007FA7425F09007F886
:103ED8007401F0A3E4F07A01FB120CF79007E6E016
:103EE8002416123F187451F0A3740AF09007F7E0F3
:103EF800640170169007F6E070107901120D5712E0
:103F08000D27120D517900120D63023EB2E0241400
:103F1800F8A3E0123F1F223400F9888289832274B3
:103F2800F612174F74FA1216F89007EFE064017052
:103F380008120A399007EFE4F075E1F19007E6E01E
:103F48002415123F187401F09007F1E064017053D2
:103F5800908FFEC082851882851983AC82AD8375E7
:103F6800838FD082740612160B75D90D9007E8124C
:103F78003EC44403F5D97800880874E9124A3B74B2
:103F880007123EBE40F2780088088518828519839A
:103F9800E582124A3BE583123EBE40EC75E1957915
:103FA8000180027900120CFD90102112401A74CB86
:103FB800F0A3740BF0A312401A12401A124179743C
:103FC800D1F0A3740B12418E9007E8E0F97AE97BEF
:103FD80007120CD99007FA1240147901120D0390B8
:103FE80090601215E6120D1B9090981215E6120CAF
:103FF800E57900120D6F9007E6123F157416F090E0
:1040080004997405F00412170E024616E0F91221FD
:104018008A2274C5F0A3740BF0A32274F412174F0C
:104028008908A80812415D9007FFE0F97A007B082B
:10403800120CD990080DE0701A7900120D3990070A
:10404800D9E0700B79007ADA7B07120CDF800979E6
:104058000180F37901120D3975E1F175D9239007C3
:10406800FF123EC44405F5D97800880A7400250A71
:10407800F5827408123EBE40F175D90075D90075F5
:10408800D90075D90075D90075D9007A001251E99F
:1040980024221244A840F67A001251E92426F58217
:1040A800E912461E0AEAC3940340EEEE242B124698
:1040B8001B7A001251E9242C1244AE40F67A001201
:1040C80051E9242E1244AE40F67A001251E9243008
:1040D8001244AE40F67A001251E924321244AE403E
:1040E800F67A008A0AEE250AF8EF124A291244BB2A
:1040F800940540EFEE2437124C7B541FF8EE242A27
:10410800124C7BC43354E048F5D975E195901021E1
:10411800749BF0A3740BF0A374A1F0A3740B124169
:104128007074A7F0A3740B12418E90080C124014FF
:104138009090601215E6120D1B9090981215E612D9
:104148000CE590600DE4F07901120D6F90049974FC
:1041580006F0023EB9E875F006A4C8AAF02AF97478
:10416800C728FE740439FF22F0A31241791241795D
:104178002212417D227495F0A3740BF0A37495F07C
:10418800A3740BF0A32212419222F090102F124137
:104198009EA312419E2212417D7495F0A3740BF0E8
:1041A8002274EC12174F9007FD124D31781012153A
:1041B800C890080EE0FAF875F006A4C8ACF02CF91F
:1041C80074F528F582740439F583E0FEA3E0FFEE68
:1041D800C333FEEF33FF8E0CF50D750E00750F001F
:1041E80085100885110985120A85130B90904C7863
:1041F8000812152E780812195E8510088511098590
:10420800120A85130B7808790C12151B7810790C93
:10421800121473E4F50EF50F7808790C1215548A08
:104228000C750D007403780C1216E57808790C12D9
:10423800151B90906C780812158FAA08AB09AC0A68
:10424800AD0B122122740412170E8A088B09A808D4
:10425800A909C3EE98EF995006E82EF8E93FF9E866
:1042680090600EF0E9A3F0EEA3F0EFA3F090600DDC
:1042780074C1F07F0C021821C082C0839007E61237
:1042880042A09007FA023EAFC082C0839007FD1299
:1042980042A090080C023EAF124D35A3A3A3A3E49D
:1042A800F0A3F02202013574F212174F1243FAF507
:1042B8000AEF1247716004780480027800E8240E3F
:1042C800F8EAC398500302435875080C900816E49E
:1042D800F0EE2477124C7B900817F07902EE2478E0
:1042E800FCEF3400FD7A187B08120B177902EE24D4
:1042F8007A12435D247C12435D247EFCEF3400FD7A
:10430800120B17EE2475124410850A82850B83E080
:10431800601675081675090878081219627C0C125F
:10432800488512170E75081074012508F5D975D936
:104338000378008009880A7416250A1243EFE8C337
:10434800950840F175E1957904120D2179018002F3
:104358007900024A24FCEF3400FD120B177902EEB3
:104368002274F212174F1243FAF508EF3400F509D8
:10437800850882F583E06004780480027800E824E8
:104388000AF8EAC3984055750A089008167401F0AF
:1043980079057CE07D077A177B08120B17EE2481DC
:1043A800124410850882850983E060167508167521
:1043B800090878081219627C0812488512170E75C8
:1043C8000A0C12467880031243E9E8C3950A40F7BD
:1043D80075E1957904120D21790180027900024A6C
:1043E80024880874162508F5827408124C82F5D9B9
:1043F80008221243FE22EAFEEBFF9061D0E0F87437
:1044080080C398FAEE248322FCEF3400FD8E828F5D
:1044180083A3A3A3A3A31245318C828D83E028F044
:10442800A3E039F07902120B172274F612174FEA3B
:10443800FEEBFF9061D0E0706275D91875D90375ED
:10444800D9037A008A08EE25081251EE249C1244FA
:10445800D240F17A008A08EE25081251EE24A412FF
:1044680044AE40F17A008A08EE25081251EE2494F1
:104478001244D240F17A008A08EE25081251EE243F
:10448800881244A840F175E1957908EE2494124405
:10449800CB24881244C212459D8002790002461638
:1044A8001244B49404221244B4940222F582E934EA
:1044B80000F583E0F5D90AEAC322FAEF3400FB12CB
:1044C8000B1D221244C27904EE221244B49408222D
:1044D80074F612174FEAFEEBFF90081674061245A1
:1044E800901219627C01790312488B12170E75D944
:1044F8000675D903780012457540FB75E19590045F
:1045080099E064087017EE2470F582EF12452AEEE0
:104518002472F582EF124979E8F0A3E9F0790102F3
:104528004616124A3612453122E0F8A3E0F9227401
:10453800F612174FEAFEEBFF9061D0E0702A900860
:1045480016740A1245901219627C01790312488B7D
:1045580012170E75D90675D903780012457540FBF8
:1045680075E1951245A28002790002461688087402
:10457800162508F58274081245859405223400F53D
:1045880083E0F5D908E8C322F0750816750908789C
:10459800082275E1957904120D21EE2470F582EF59
:1045A800124A36124531EE2472F582EF124A36E885
:1045B800F0A3E9F079012274F612174FEAFEEBFF37
:1045C8009061D0E070437901900816740BF0900464
:1045D80099E06407701775081675090878081219A4
:1045E800627C01090912488B12170E79057401299A
:1045F800F5D975D903780080031243E9E8C39940D7
:10460800F875E1951245A2800279008001F07F02D9
:10461800021821F582EF124C82F5D92274F512178F
:104628004F1246A76004780480027800E8240BF84B
:10463800EAC3984036750A099008167408F0F9120A
:1046480046906014750816750908780812196212E0
:10465800488312170E750A0D12467880031243E933
:10466800E8C3950A40F712459A800279000248F299
:104678007401250AF5D975D903780022EE241DF5B1
:1046880082EF12498BA3F022EE24E5FCEF3400FD03
:104698007A177B08120B17850882850983E0221296
:1046A80043FEF8EF124E05F583E02274F312174F1C
:1046B8008A088B09124896FAE5082483F50AEB1252
:1046C80047716004780480027800E82408F8EAC397
:1046D80098500302476A750C06900816740CF090FF
:1046E80004B6E0900817F07402C0E0F97CB77D04C6
:1046F8007A187B08120B17D0E0F97CB97D04120BED
:1047080017850A82850B83E0601C750A16750B08ED
:10471800780A1219627C067903AA08AB0912488B39
:1047280012170E750C0A7401250CF5D975D9037882
:10473800008009880A7416250A1243EFE8C3950C0D
:1047480040F175E1957904120D21E5082470F58290
:10475800E50912452AE5082472F582E5091245B4EF
:10476800800279007F050218213400F50B850A8242
:10477800F583E02274F612174FEAFEEBFF12489613
:10478800FCEE2483F8EF12489160047A0480027AE0
:1047980000EA2404FAECC39A405E7A02900816EA0A
:1047A800F0EE24F7F582EF12480C601975081675BB
:1047B800090878081219627C027903EEFA12488B0C
:1047C80012170E7A0674012AF5D975D90378008074
:1047D800031243E9E8C39A40F875E195EE24741290
:1047E8004805EE24801248051246847904120D21EA
:1047F800EE240D1245A580027900024616F582EFD7
:1048080012498B22124C82900817F088828983E023
:104818002274F612174F124896FEEA2483F8EB1218
:10482800489160047C0480027C00EC2404FCEEC304
:104838009C40437C029008167407F0EA24F8F5823D
:10484800EB12480C601575081675090878081219D6
:1048580062790312488B12170E7C0674012CF5D965
:1048680075D903780080031243E9E8C39C40F875C2
:10487800E1957901800279000246167C097903EEF8
:10488800FAEFFB120B89740222123F1FE02290619B
:10489800D0E0F87480C3982274F512174FE9FEA28D
:1048A800AFE433F50AC2AF7F00EA246FF8EB3400B7
:1048B800F980010F88828983E0FCEFC39C50188F30
:1048C80008EA2508FCEB3400FDEC246BF582ED12B8
:1048D8004C7E6E70DE800DEA2CFAEB124C0EEE1256
:1048E800481204F0E50AA2E092AF7F03021821748F
:1048F800F612174FA2AFE433FFC2AFEA246FF8EB0A
:104908001251F0FCE9FD8C828D83E014F07E00806A
:104918001E8E08EA2508F8EB1251F0246CF582E99E
:10492800124C7EC0E0E8246B124976D0E0F00E8C81
:10493800828D83E0F8EEC39840D7EA246EF582EBC7
:1049480012497974FF12497DEFA2E092AF02461630
:10495800C082C083E5A8F8C2AFEA246BF582EB12E7
:104968004979E912497DE8A2E792AF023EB2F582A1
:10497800E9124A3622F0EA246AF582EB12498B22C0
:10498800F582E93400F583E4F02274F212174F8CB3
:10499800828D83A3A3A3A3E0541FF0EA2436124F09
:1049A800388E828F83E4F0F50C850C8285820AECC0
:1049B800250AF8ED124E01F583E0C0E0EA250AF871
:1049C800EB124A29D0E0F0750D008508828509832D
:1049D800E0F50A750B00E50D780A1216C6E50AA27D
:1049E800E05027E50C33333354F8250DC0E08E82B0
:1049F8008F83E0F8EA28F8EB1251F0243812497650
:104A0800D0E0F08E828F83E004F0050DE50DC394AD
:104A18000840B7050CE50CC39405408D7F060218C5
:104A2800213400F9E8245D124A3322F582E9340082
:104A3800F583222508F5822274F612174F9004C3D5
:104A4800E0640370077A007B000246167C00ECF8ED
:104A580075F006A4C8AAF02AF974C928F582740466
:104A680039F583E06003024BF2124E7A124C20E4CF
:104A7800F0E82404FAE93400FBEAFEEBFFEC8E824E
:104A88008F83F0E82462124BFF2465124C2F2468B0
:104A9800124976124C20A3A3E4F0A3124CC4A3122B
:104AA8004C33240F124BFF2435124C071215E6E83D
:104AB80024181249761215F2E8241C124C1B241DE6
:104AC800124C2F2480124C1B2474124C1B24691284
:104AD80049767480F0E8246A124C1B246F124C1B30
:104AE8002467124C1B24ED124C1B24EE124C1B2481
:104AF800EF124C1B24F0124C1B24F1124C2F24F300
:104B0800124C2F24F6124C1B2483124C1B24D31254
:104B18004C1B24D4124C071215E6E824D51249760A
:104B28001215F29090281215E6E824D91249761247
:104B380015F2E824DF124C1B24E1124C1B24DD1271
:104B48004C1B24E2124C1B24E3124C1B24F9124C7C
:104B58002F24FB124C2F24FD124C2F24FFF582E941
:104B680012468AFC8C08E82508FAE9124C0E74FFF4
:104B7800F00CECC3940440EC7C008C82AA8274E0B4
:104B88002AF5827407124C7EC0E0E82AFAE934005C
:104B9800FBEA245DF582EB124979D0E0F00CECC316
:104BA800940540D67C008C82AA8274AD2AF5827462
:104BB80004124C7EC0E0E82AFAE93400FBEA24E556
:104BC800F582EB124979D0E0F00CECC3940840D69A
:104BD8009004C3E004F0640170098E828F83E09032
:104BE80004C5F0E8FAE9FB024A510CECC39403400F
:104BF80003024A4D024A56124A337401F0E822125F
:104C08004988909028223400FBEA246BF582EB1245
:104C18004A3622124988E8227401124C2622F0886A
:104C2800828983A3A3A322124A33E4F0A3F0E822E3
:104C3800C082C083EA2403F582EB124C7E6008E44C
:104C4800F09004C4E014F09004C3E014F0700690EF
:104C580004C574FFF08A828B83A3A3E4F09007E570
:104C6800E0700D9004C4E0640170057900120CEB4B
:104C7800023EB2F582EF124C82223400F583E02224
:104C8800C082C0837B00EBF875F006A4C8AAF02A9E
:104C9800F974C328F87404124E84A3A3A3A3A3E44D
:104CA800124CC4F00BEBC3940340DB9004C3E4F054
:104CB800A3F0A374FFF075E1F1023EB2124C26A3F3
:104CC800A3A32274F512174F750800750900750A19
:104CD80000A80A12415D8E828F83A3A3A3E0602DF2
:104CE800E5084509700AEEF8EFF988088909801D7A
:104CF800850882850983124D31121975124D2D12BE
:104D080015E61220C5740412170EE960D9050AE5E4
:104D18000AC3940340BB850882850983A3A3A3A380
:104D2800E0F90248F28E828F83124D3522E0F8A313
:104D3800E0F5838882A3A32274F712174F78FF79CE
:104D4800FF7F00EFFC75F006A4CCAEF02EFD74C713
:104D58002CFC74043DFD8C828D83A3A3A3E06040EA
:104D6800EC2474F582ED124C7EFE74FF68700374B7
:104D7800FF69701574016E700BEC247AF582ED12E0
:104D8800452A801CEC242E80F374016E700AEC24F2
:104D98007A124DBF500A80E1EC242E124DBF40E438
:104DA8000FEFC39403409CC3EA98EB994004E8FAD8
:104DB800E9FB7F01021821F582ED124A36C3E0981B
:104DC800A3E0992274F612174FEAFEEBFF120ABD10
:104DD800EE2465F8EF124E01124E0FEC4D60109064
:104DE80004C5125125850882850983E4F0A3F0EEF5
:104DF800FAEFFB120C0D024616124E05223400F98A
:104E080088088909888222F583E0FCA3E0FD2274E2
:104E1800F712174FEAFEEBFF8E828F83A3A3A3A39B
:104E2800E0FA7B0012083BEEFAEFFB120AD5120BF0
:104E3800EF024DBAC082C0837B00EBF875F006A480
:104E4800C8AAF02AF9124E7AA3E0601AE8246FF58E
:104E580082E9124C7E600FE8246BF582E9124C7EE1
:104E68007004790180090BEBC3940340CD790002EB
:104E78003EB274C728F87404124E842239F9888225
:104E88008983A3A32274F612174F7800880874AD9B
:104E9800124A3B740412480808E8C3940840ED908D
:104EA80004AD7401024615C082C08374FC1216F862
:104EB8009090281215E68518828519831215F2122A
:104EC8000B23E9851882851983F0120B23740112CC
:104ED8001743E9F0120B237402121743E9F08518FF
:104EE800828519831215E67404023C3474F612178D
:104EF8004FEA240D124F38EC2403F8ED3400F988FA
:104F0800088909EC2407F8ED1251F0FCE9FD124F6D
:104F18004212166D8E828F83E8F0A3E9F0124F4299
:104F280012166D8B09EA45096003124F55024616A1
:104F3800F8EB3400F9E8FEE9FF228C828D831245F4
:104F480031850882850983E0FAA3E0FB228E828FEF
:104F580083E02401F0A3E03400F02274F612174F26
:104F6800EA242EF582EB3400124E0FEA2470124F19
:104F780038780079FAECFAEDFB12166D8E828F8381
:104F8800E8F0A3E9F0780079FAECFAEDFB12166D77
:104F98008B09EA45096003124F5502461674F01250
:104FA800174FEAFEEBFF741012174378081215C862
:104FB800120CA38A0C8B0D8C0E8D0F909048780CD8
:104FC80012152E90906C780C12158F780C12195EB1
:104FD800124D2D1215E61220C5740412170EE96041
:104FE800030250898E828F83E02402F8A3E01251D5
:104FF800F0FAE9FB8A828B83780812154190906C4D
:1050080078081215C88A828B8378081215A2EE24B4
:105018000BF582EF124979C082C0838E828F83A3F9
:10502800A3A3A3A3E02401F8A3E03400F9D083D01C
:1050380082E0687003A3E069700479018045EE247A
:1050480007F8EF123F1F124F59EE24741251F570F2
:1050580014EE24751250907003A3E06D70078A82D5
:105068008B83124F59EE24801251F57014EE24816F
:105078001250907003A3E06D70078A828B83124FE1
:105088005979007F08021821FAEF3400FB8A828BD5
:1050980083E0FCA3E0FD88828983E06C2274F3122C
:1050A800174F9004C5E0F812415EEE2404F50AEFAC
:1050B8003400F50BEE2465F508EF3400F50980108F
:1050C800124E11850882850983E4F0A3F012511F5E
:1050D800850882850983124E11EC4D6030EE2464F8
:1050E800124C7BF50C780C121966EE2463124C7B7B
:1050F800F9EEFAEFFB120B0B740112170EE9850893
:105108008285098360BA12452DE84970077C007DC5
:105118000012511F02476C850A82850B83E0FA7BD7
:10512800001207F32274F212174FEAFEEBFF890A06
:10513800740E121743E0FAEE24621251F56003026E
:1051480051E4124896F50CEE2483124C7BFB600464
:105158007804800278008908E928F8E41251F024DC
:10516800020808E93400F9E50C98E499A2D265D060
:10517800334065EA7005750B028003750B01EB601F
:105188003375090078081219627A167B08120B53D6
:10519800740212170E750816750908780812196234
:1051A800AC0AA90B12488712170E7404250AF50ACF
:1051B8007C167D087401250AF5D9850BD9780080FD
:1051C8000A8808EC124A3BED1243F3E8C3950A40FB
:1051D800F075E195790080067907800279FF024A27
:1051E800248A0AEE250AF8EF3400F9E822F582EF5E
:1051F800124C82640122C082C083800312522CE9BF
:10520800F874FF28190470F4ECFAEDFB023EB2C002
:1052180082C083800312522CE9F874FF28190470A5
:10522800F4023EB28C828D83E08A828B83F08C827A
:105238008D83A3AC82AD838A828B83A3AA82AB833E
:105248002274F412174FE9FF7E008A088B09780848
:105258001219A600040DE6537C529852AD52C25260
:10526800D752EC52085321533353615370538C5324
:10527800A853C65374016F70128C828D83E0C39457
:10528800035008E0901043F00254047E18025404BE
:1052980074026F70F68C828D83125B79901044E8EB
:1052A800F0A3E980E274016F70E18C828D83E0C322
:1052B800940250D7E0900DDA80CD74016F70CC8CD9
:1052C800828D83E0C3940550C2E0900DDB80B874F2
:1052D800016F70B78C828D83E0C3940250ADE0906B
:1052E8000DDC80A374106F70A27508108E09780801
:1052F8001219627ADD7B0D125F6212170E025404D6
:1053080074016F70868C828D83E0C394024003021F
:105318005293E0900DED02528F74016F60030252B8
:10532800938C828D83E0901047808D74046F6003A6
:1053380002529390904078081215C88D838C827819
:10534800081213C440030252938C828D831215E60F
:10535800900DEF1215F2025404EF600302529312FB
:10536800118912117D02540474016F600302529373
:105378008C828D83E0C394024003025293E0900D27
:10538800EE02528F74016F60030252938C828D83F8
:10539800E0C3940A4003025293E090104602528FF1
:1053A80074016F60030252938C828D83E024F9C3E9
:1053B800940A4003025293E090104802528F7401FD
:1053C8006F6003025293900E81E0F88C828D83E027
:1053D800900E81F0E87025E0640170208084C3EAB3
:1053E8009424EB9400501374026F700E8C828D839A
:1053F800125B84120403E9FE80020E0EEEF90254D9
:105408000E740E12170E7F0402182174F212174F31
:1054180074DA1216F8890AECFEEDFF743412174399
:10542800E0F50B7420121743AC82AD837583907539
:105438008216740612160B7420121743AC82AD83C1
:10544800121123E9F508C3940A40030255661211A4
:1054580065E9F509901043E0640270047401800165
:10546800E4F50C780C121966AD0BAC09A908EEFA34
:10547800EFFB1211B3740112170E7C147D00790032
:10548800740C121743AA82AB83120FAF75F006E5AE
:1054980008A4F50B740C121743AC82AD837A107410
:1054A80024250B125C1170387C1079FF740C1217CC
:1054B800431255AD702A741C121743AC82AD837A1F
:1054C800047425250BF912133F740C121743AC8290
:1054D800AD83E509A2E0E433F9EEFAEFFB12049993
:1054E800851882851983AC82AD837A0C747025087F
:1054F800125C117055851882851983AA82AB8312B4
:105508001159750800E50875F003A4F8A9F0851885
:1055180082851983E58228F8E583125D4F125B8442
:10552800EC4D601D88828983A3A3E0F50C750D00FE
:10553800780C121962EEFAEFFB12072774021217A1
:105548000E0508E508C3940440BBE509A2E15046EE
:10555800900DD9E0F9EEFAEFFB12072D80387408A8
:10556800650B7032901043E06402702A7C007D0065
:10557800A90AEEFAEFFB1211AD1255B66018125BCC
:105588008A88828983E5824583600B7C007900EEF6
:10559800FAEFFB12174D7900742602643479FF85FF
:1055A8001882851983AA82AB83121015E922900DFF
:1055B800F3E0F8A3E0F9E8492274F012174FEAFE85
:1055C800EBFF8C088D09750A0AE9600C1460091450
:1055D800602E14607F025667121171E9F50AC394B0
:1055E8000A507CE50845096076750E06750F007847
:1055F8000E121962EEFCEFFD125F5E12170E805F4D
:10560800750B00750E06750F00780E121962EEFC08
:10561800EFFDE50B75F00EA4F8A9F074FB28FA74F9
:105628000D39FB120FA9740212170EE9601B850BC6
:105638000AE50AC3940A5027E50845096021AA0823
:10564800AB09A90A12116B8016050BE50BC3940A66
:10565800500D80AF121177E9F50AC3940A40D9A911
:105668000A7F0802182174F412174F890875091562
:1056780074FF6A700374FF6B70277E00AC087A02AF
:105688007B00EEF9121147E960037509000EEEC3BD
:10569800940A40E8E50860497AA17B111209318033
:1056A800401209138A0A8B0BAE0AAF0BEE4F602E1D
:1056B8007C007D00EE2405FAEF3400FB8E828F8398
:1056C800125769500CAC087A027B00121147750911
:1056D80000E508600CEEFAEFFB1211A180037509D2
:1056E80014A90902540E74F212174FECFEEDFF7460
:1056F8000E121743E0F50AA3E0F50B75081574FFC1
:105708006A700374FF6B7021750900AC0AAD0BEE6B
:10571800FAEFFBA90912114DE960037508000509A4
:10572800E509C3940A503580E21209138A828B83F3
:10573800E582458360237C007D00E5822405FAE547
:10574800833400FB1257695013AC0AAD0BEEFAEF25
:10575800FB12114D7508008003750814A90802642E
:1057680037A3A3A3A3125B63C3940A22C082C08396
:10577800900DF3EAF0A3EBF0900DD9E0FC7D007AF0
:10578800237B00120403900DD9E0F91206A9D083F7
:10579800D08202013574EC12174F8A088B09E9FE92
:1057A8007414121743780C1215C87F00EE702E7807
:1057B8000812196290904078101215C8780C791068
:1057C800121473AA10AB11AC12AD131204AB74020D
:1057D80012170EE9FF60097901AA08AB091204A59E
:1057E800EFF97F0C02182174EA12174F74EC1216A5
:1057F800F8EAFEEBFFEE240CF514EF3400F515EE95
:10580800240AF510EF3400F511EE2403F508EF34FF
:1058180000F5098E828F83A3A3E024FA7003025B4C
:105828005024FD7003025A791470030258D0146092
:1058380010147003025AAB24FE7003025A4E025B26
:1058480059EE2409F50AEF3400F50B1255B6604AF3
:10585800E0F5838882125B79880C890DE8450D6034
:1058680039851482851583E0F50E780E121966EED7
:10587800240BF582EF3400F583E0F9850A82850B65
:1058880083125B840A0A0AAB09850C82850D831290
:10589800174D740112170E025B59850A82850B8316
:1058A800121979900DEF1215E61204AB7402121753
:1058B8000EE97003025B597901850A82850B831210
:1058C800625C1204A5025B598E828F83A3858212C3
:1058D800858313E06003025A21EE2405F50CEF34AA
:1058E80000F50D850C82F583E0A2E04003025A2101
:1058F8007C0E7D007900851882851983AA82AB8386
:10590800120FAFEE2408F50AEF3400F50B850A8272
:10591800F5831255B96019750E06750F00780E12C9
:105928001962850A82850B83E02410FCA3E0801DA0
:10593800126256120913EA4B7003025B59750E0680
:10594800750F00780E121962EA2405FCEB3400FD8D
:105958007402121743AA82AB83125F6212170E8574
:105968000C82850D83E0A2E25004D2F08002C2F0DE
:10597800A2F0E433F8740C121743E048F085108263
:105988008511831255B96015851082851183E0242D
:1059980010F8A3E03400F98882898380039090444A
:1059A800780C1215C88510828511831255B9600FBD
:1059B800851082851183E0F510A3E0F51180067546
:1059C8001000751100850A82850B831255B9600F86
:1059D800850A82850B83E0F50AA3E0F50B8006753E
:1059E8000A00750B00780C12195E7810121962788B
:1059F8000A1219628514828515831219798E828F8D
:105A080083A3125B7F740A121743AA82AB83121115
:105A18005F740A12170E125B6A1255B67003025BA6
:105A280059125B8AE8FEE9FFEE4F7003025B598565
:105A38001282851383E0FC79011262568E828F836D
:105A480012174D025B59125B6A1255B67003025B5E
:105A580059125B8A890BE8450B7003025B598E82E9
:105A68008F83A3E0FC79021262568882850B8380BB
:105A7800CF7C007D00EE2404FAEF3400FB85088219
:105A8800850983125B63F8C3940A4003025B59AC2F
:105A980010AD117A0475F006E8A42425F91213391B
:105AA800025B59850882850983E0F508A3E0F509BA
:105AB800740E121743AC82AD83758390758210748F
:105AC8000612160BAA08AB091209138A0A8B0BA82F
:105AD8000AA90BE849607A901043E064026072E812
:105AE8002404FEE93400FF740E121743AC82AD8320
:105AF800E82405FAE93400FB8E828F83125B63F594
:105B08000AC3940A501C750B01780B1219661211FE
:105B180065E9FC7408FDA90AAA08AB091211B302C9
:105B2800589A901043E070097905AA08AB09025801
:105B3800CA6401701C7C007D008E828F83E0F9AA04
